:100000000C94F2030C941A040C941A040C941A0421
:100010000C941A040C941A040C941A040C941A04E8
:100020000C941A040C941A040C941A040C941A04D8
:100030000C941A040C941A040C941A040C941A04C8
:100040000C94530B0C941A040C949F100C9479107C
:100050000C941A040C941A040C941A040C941A04A8
:100060000C941A040C941A04000003E007F00670C4
:100070000630063007B007B007B007B807B807B0BA
:1000800007B807B807B007B807B807B007B007B098
:1000900007B00FB01FF81FF81FF81FF81FF81FF860
:1000A0000FF007E00000000000000000003E5B4F82
:1000B0005B3E3E6B4F6B3E1C3E7C3E1C183C7E3CC8
:1000C000181C577D571C1C5E7F5E1C00183C1800D6
:1000D000FFE7C3E7FF0018241800FFE7DBE7FF3066
:1000E000483A060E2629792926407F050507407FD4
:1000F00005253F5A3CE73C5A7F3E1C1C08081C1C47
:100100003E7F14227F22145F5F005F5F06097F013C
:100110007F006689956A606060606094A2FFA29427
:1001200008047E040810207E201008082A1C0808F5
:100130001C2A08081E101010100C1E0C1E0C303843
:100140003E3830060E3E0E06000000000000005F44
:1001500000000007000700147F147F14242A7F2A60
:100160001223130864623649562050000807030022
:10017000001C2241000041221C002A1C7F1C2A086E
:10018000083E0808008070300008080808080000D1
:1001900060600020100804023E5149453E00427F45
:1001A000400072494949462141494D331814127F94
:1001B0001027454545393C4A494931412111090734
:1001C0003649494936464949291E000014000000B5
:1001D0004034000000081422411414141414004187
:1001E00022140802015909063E415D594E7C121144
:1001F000127C7F494949363E414141227F4141417C
:100200003E7F494949417F090909013E41415173F6
:100210007F0808087F00417F41002040413F017F67
:10022000081422417F404040407F021C027F7F042F
:1002300008107F3E4141413E7F090909063E415178
:10024000215E7F09192946264949493203017F0168
:10025000033F4040403F1F2040201F3F4038403F69
:10026000631408146303047804036159494D43007F
:100270007F4141410204081020004141417F0402B6
:10028000010204404040404000030708002054544D
:1002900078407F284444383844444428384444282B
:1002A0007F385454541800087E090218A4A49C787E
:1002B0007F0804047800447D40002040403D007FDA
:1002C0001028440000417F40007C047804787C08BA
:1002D0000404783844444438FC182424181824248E
:1002E00018FC7C08040408485454542404043F4473
:1002F000243C4040207C1C2040201C3C4030403CA2
:1003000044281028444C9090907C4464544C440001
:100310000836410000007700000041360800020165
:100320000204023C2623263C1EA1A161123A404051
:10033000207A3854545559215555794122545478CE
:1003400042215554784020545579400C1E52721267
:1003500039555555593954545459395554545800F0
:1003600000457C410002457D420001457C407D12F4
:1003700011127DF0282528F07C5455450020545456
:100380007C547C0A097F4932494949323A44444401
:100390003A324A4848303A4141217A3A424020783C
:1003A000009DA0A07D3D4242423D3D4040403D3C3D
:1003B00024FF2424487E4943662B2FFC2F2BFF0962
:1003C00029F620C0887E0903205454794100004456
:1003D0007D413048484A32384040227A007A0A0A41
:1003E000727D0D19317D2629292F282629292926B4
:1003F00030484D4020380808080808080808382FF9
:1004000010C8ACBA2F102834FA00007B0000081482
:100410002A142222142A14085500550055AA55AA58
:1004200055AAFF55FF55FF000000FF00101010FFF8
:1004300000141414FF001010FF00FF1010F010F053
:10044000141414FC001414F700FF0000FF00FF1444
:1004500014F404FC141417101F10101F101F141490
:10046000141F00101010F0000000001F10101010DA
:100470001F10101010F010000000FF1010101010CE
:1004800010101010FF10000000FF140000FF00FF0C
:1004900000001F10170000FC04F4141417101714A8
:1004A00014F404F40000FF00F714141414141414CA
:1004B000F700F7141414171410101F101F1414143D
:1004C000F4141010F010F000001F101F0000001FA7
:1004D00014000000FC140000F010F01010FF10FFDA
:1004E000141414FF141010101F00000000F010FF6F
:1004F000FFFFFFFFF0F0F0F0F0FFFFFF0000000053
:1005000000FFFF0F0F0F0F0F3844443844FC4A4AD6
:100510004A347E02020606027E027E02635549418B
:10052000633844443C04407E201E2006027E0202C2
:1005300099A5E7A5991C2A492A1C4C7201724C30D6
:100540004A4D4D303048784830BC625A463D3E49AD
:100550004949007E0101017E2A2A2A2A2A44445F51
:10056000444440514A444040444A51400000FF0145
:1005700003E080FF000008086B6B08361236243653
:10058000060F090F060000181800000010100030B8
:1005900040FF0101001F01011E00191D1712003C40
:1005A0003C3C3C000000000000000000230026004E
:1005B00029000000000800020100000304070000F9
:1005C00000000000000000000000240027002A00B6
:1005D00001020408102040800102040810200102DA
:1005E0000408102000000000250028002B0004044F
:1005F00004040404040402020202020203030303CB
:1006000003030000000000000000000000000000E4
:1006100000000000000000000000000000000000DA
:10062000000000000000000000000000F0000000DA
:10063000000000000010F8C000000000000000787A
:10064000F1E0000000000000007C63E0000000001A
:100650000000007801E0000000000000003800C049
:100660000000000000000780000E000000000000F5
:100670000F80001F0000000000000F80001F00001E
:10068000000000000780000E0000000000000200D3
:1006900000040000000000001DFE01FBF00F8100BF
:1006A00000001FFF01FFF8079F83FF8001F8001C77
:1006B0003C061F83FFE001F0001C3E063FC3FFE045
:1006C00001F0001C3F063FC3F3F001F0001C378629
:1006D0003FC3E1F001F0001C33863FE3E1F801F095
:1006E000001C33C67BE3E0F801F0001C31E679E33F
:1006F000E0F801F0001C30F679F3E0F801F0001C9E
:100700003076FFF3E1F801F0001C303EFFF3E1F832
:1007100001F0001C301FFFFBE3F001F0001C301F54
:10072000FFFBFFF001F0001C300FE0FBFFE001F0E9
:10073000001C3807E0FFFFC001F0001C7C03E07FD5
:10074000FF0001F0001C00000000000001F0001C90
:100750000000600000C001F0001C0000F00001E09B
:1007600001F000180000F80001E001F0001800009E
:10077000F80001E000F000380000700001C000F057
:100780000038000007001C0000F80070000007801F
:100790003E00007C00F00000078E3E00003F07E0B6
:1007A0000000079F1C00001FFF800000001F0000CA
:1007B0000007FE000000000F000000000000000025
:1007C0000004000000000000000000000000000025
:1007D0000000000000000000000000000000000019
:1007E0000000D11011241FBECFEFD8E0DEBFCDBF77
:1007F00013E0A0E0B1E0ECE6FBE202C005900D9250
:10080000A635B107D9F724E0A6E5B3E001C01D92F3
:10081000AC32B207E1F713E0C2EFD3E004C0219796
:10082000FE010E94A915C13FD107C9F70E942D11F1
:100830000C94B4150C940000833081F028F48130BE
:1008400099F08230A1F008958730A9F08830B9F08E
:100850008430D1F4809180008F7D03C0809180002E
:100860008F7780938000089584B58F7702C084B518
:100870008F7D84BD08958091B0008F7703C08091F3
:10088000B0008F7D8093B00008953FB7F8948091B9
:100890005B0390915C03A0915D03B0915E0326B56C
:1008A000A89B05C02F3F19F00196A11DB11D3FBFA8
:1008B000BA2FA92F982F8827820F911DA11DB11D36
:1008C000BC01CD0142E0660F771F881F991F4A9532
:1008D000D1F70895FC0177FD68C080859185681780
:1008E00079070CF062C057FD60C082859385481778
:1008F00059070CF05AC08589823059F08330B1F025
:100900008130D1F48FE290E0861B970BBA01AC01E5
:1009100013C083E590E0FC01E61BF70BBF018FE2FB
:1009200090E0FC01E41BF50BAF0106C083E590E00D
:10093000841B950BAB01BC0164357105B0F54033E8
:10094000510598F5CA01E3E095958795EA95E1F799
:1009500047705527232BA1F024E5289FF001299FFC
:10096000F00D11246E0F7F1FFB01EE5FFE4F81E043
:1009700090E001C0880F4A95EAF79081892B14C056
:1009800024E5289FF001299FF00D11246E0F7F1F91
:10099000FB01EE5FFE4F81E090E001C0880F4A95B9
:1009A000EAF7809590818923808308950895FC015A
:1009B0006370658B8481958126813781613039F040
:1009C000633029F0918780873387228708953187A4
:1009D00020879387828708952F923F924F925F924C
:1009E0006F927F928F929F92AF92BF92CF92DF923F
:1009F000EF92FF920F931F93CF93DF93CDB7DEB7A4
:100A00006C970FB6F894DEBF0FBECDBF9C8F8B8F57
:100A10005B011A011F830E833701C982DC015896DE
:100A20004D915C9159974115510509F0E5C0189613
:100A30008D919C911997681779070CF0CAC11A9685
:100A40008D919C911B97281639060CF0C2C18C2CF5
:100A5000912CFB0136E0C39EE00DF11D1124FB87B4
:100A6000EA871E161F060CF0B4C1C40133E0880FDC
:100A7000991F3A95E1F79D878C87820D931D181673
:100A800019060CF0A6C157968C91811103C0203B2A
:100A900008F02F5FAB8DBC8DED91FC911197028416
:100AA000F385E02DCD012A8F09952A8DB5E02B9F86
:100AB00090011124F5013596FF87EE87BB82AA824B
:100AC0002501A9014A195B09598B488BC101089678
:100AD0009B8B8A8BE889F989E40DF51DE855FF4F5A
:100AE0009491988761013D822C82A885A0FF13C054
:100AF000AB8DBC8DED91FC91B981B13031F40484A2
:100B0000F585E02D2E813F8116C00684F785E02D06
:100B1000EE80FF801AC0EE81FF816E167F06F1F035
:100B2000AB8DBC8DED91FC91B981B13051F4048451
:100B3000F585E02D9301A601B2018B8D9C8D099561
:100B40000DC00684F785E02D7301840194014C816A
:100B50005D816A817B818B8D9C8D0995E885E69509
:100B6000E887FFEFCF1ADF0A2C813D81280D391D60
:100B70003D832C834A895B89C416D50609F0B5CF1D
:100B80005FEF451A550A8A819B81880D991D9B83C9
:100B90008A83AE85BF854A165B0609F09BCFEE813E
:100BA000FF816E167F0609F4F2C0EB8DFC8DA081EB
:100BB000B181F981F13079F4B5016B5F7F4F5096C7
:100BC000ED91FC915197830128E030E0A1018B8DDC
:100BD0009C8D0995DCC06A857B85681979091E960C
:100BE000ED91FC911F9773010C851D859401A10166
:100BF0008B8D9C8D0995CBC0FA01349694913297D8
:100C000065917491291BCB01B7E02B9F800D911D3D
:100C10001124FA01259134913B8B2A8BFC014591DB
:100C200054915B834A83FC013296C490319654916F
:100C30005E87329614913196D4908981823058F033
:100C4000612E012E000C7708AD2D0D2C000CBB0B76
:100C5000B987A88704C019861886612C712CAB8DC2
:100C6000BC8DED91FC9111970284F385E02DCD01AF
:100C70000995B9818B2E912C689CC001699C900DBF
:100C8000789C900D1124FC01EA0DFB1DFD87EC877B
:100C90001C82712C612CE12F110FFF0B95012E0F7F
:100CA0003F1F3B872A87AC0CB11CA5014E0F5F1F6D
:100CB0005F8B4E8BC1018D0D911DD7FC9A95998F3D
:100CC000888F4E85641608F062C0862D90E04885B6
:100CD0005985480F591F489D9001499D300D589DD9
:100CE000300D1124D901A20DB31DB98BA88BAA8494
:100CF000BB844C845D84DC80BA85DB1AE88DF98D79
:100D0000E80FF91FFD8BEC8B8D2D8A0D2E893F8905
:100D1000A216B306B9F1877061F48A819B810196AE
:100D2000EA89FB89AA81BB81EA0FFB1F74909B8330
:100D30008A8377FE20C0AB8DBC8DED91FC91B9818B
:100D4000B13061F40484F585E02D2E813F814C891A
:100D50005D89B5018B8D9C8D09950DC00684F78545
:100D6000E02DEE80FF808401940148895989B20109
:100D70008B8D9C8D0995770CEFEFAE1ABE0A480C4F
:100D8000591CC2CF3C813C0D3C8363949ACFAB8D00
:100D9000BC8DED91FC9111970688F789E02DCD016E
:100DA0006C960FB6F894DEBF0FBECDBFDF91CF912A
:100DB0001F910F91FF90EF90DF90CF90BF90AF9079
:100DC0009F908F907F906F905F904F903F902F906B
:100DD00009946C960FB6F894DEBF0FBECDBFDF91BD
:100DE000CF911F910F91FF90EF90DF90CF90BF9028
:100DF000AF909F908F907F906F905F904F903F90BB
:100E00002F900895AF92BF92CF92EF92FF920F93DF
:100E10001F93CF93DF93EC01262F888D998D009738
:100E200009F040C06A3059F41D861C862C898E85D5
:100E30009F8538E0239F800D911D112441C06D30A6
:100E400009F4AAC08E898823C1F03C898C859D85D0
:100E500046E0349F800D911D11244885598548171F
:100E600059075CF41D861C868E859F8548E0349F5B
:100E7000800D911D11249F878E87EA88FB88088941
:100E800019894E855F856C857D85CC88CE010E9451
:100E9000EC042C898C859D8536E0239F800D911D67
:100EA000112442C06A3079F41D861C862C89FC010D
:100EB0003696E4918E859F852E9F800D911D11247D
:100EC0009F878E8769C06D3009F466C0FC01349637
:100ED0003491631708F460C03196E491E61708F482
:100EE0005BC0FC013296A590B490462F50E0431BA6
:100EF000510937E0349FB001359F700D1124A60EC3
:100F0000B71EF501329634913196E491332311F0F6
:100F1000E1110DC0F5013496E4912C898C859D85F5
:100F2000E29F800D911D11249D878C8735C0F501AE
:100F3000359644915E89552311F16C89E32FF0E0D9
:100F4000E40FF11D47FDFA956E9FD0016F9FB00D24
:100F500011244C855D854A0F5B1FE885F985E417F0
:100F6000F5076CF41D861C86FC013696E4918E858F
:100F70009F856E9F800D911D11249F878E87EA8823
:100F8000FB88088919894E855F856C857D85CC88AD
:100F9000CE010E94EC04BECF81E090E0DF91CF91C2
:100FA0001F910F91FF90EF90CF90BF90AF90089559
:100FB0006F927F928F929F92AF92BF92CF92DF9269
:100FC000EF92FF920F931F93CF93DF93EC014B01AE
:100FD0005A0169013801E881F9810284F385E02D25
:100FE0000995E881F9810288F389E02D870196014E
:100FF000A501B401CE010995E881F981A501460D4D
:10100000571D415051090288F389E02D9601B40122
:10101000CE010995E881F9810088F189E02D9301DD
:10102000A501B401CE010995E881F981C80CD91C4C
:10103000B601615071090088F189E02D9301A50185
:10104000CE010995E881F9810688F789E02DCE0166
:10105000DF91CF911F910F91FF90EF90DF90CF9094
:10106000BF90AF909F908F907F906F900994CF9298
:10107000DF92EF92FF920F931F93CF93DF9300D0F5
:1010800000D000D0CDB7DEB76C01DC01ED91FC9152
:101090006217730789F4041715072CF4942F852F12
:1010A000A801092F182F041B150B98012F5F3F4F24
:1010B000048CF58DE02D12C04017510709F5261755
:1010C00037072CF4962F872FB901292F382F261B8D
:1010D000370B2F5F3F4F068CF78DE02D8701C60140
:1010E000099526960FB6F894DEBF0FBECDBFDF91EF
:1010F000CF911F910F91FF90EF90DF90CF900895C7
:101100000284F385E02D2D833E834B835C836983CA
:101110007A830995D601ED91FC910488F589E02D3B
:101120002D813E814B815C8169817A81C60109955F
:10113000D601ED91FC910688F789E02DC60126962F
:101140000FB6F894DEBF0FBECDBFDF91CF911F91D8
:101150000F91FF90EF90DF90CF900994EF92FF9264
:101160000F931F93DC01ED91FC9111971A960D914D
:101170001C911B9718962D913C91199700A0F1A1F5
:10118000E02D7B0140E050E060E070E009951F91A8
:101190000F91FF90EF9008954F925F926F927F9220
:1011A0008F929F92AF92BF92CF92DF92EF92FF9277
:1011B0000F931F93CF93DF9300D0CDB7DEB76C01B1
:1011C0005A0139014801DC01ED91FC910284F3855B
:1011D000E02D69837A8309956981462E7A81572E9D
:1011E000640C751CD601ED91FC91461457046CF407
:1011F0000088F189E02D87019401A501B201C601A3
:101200000995BFEF4B1A5B0AEDCF0688F789E02DF1
:10121000C6010F900F90DF91CF911F910F91FF901A
:10122000EF90DF90CF90BF90AF909F908F907F9086
:101230006F905F904F900994AF92BF92CF92DF92E0
:10124000EF92FF920F931F93CF93DF9300D000D0C4
:10125000CDB7DEB75C016901DC01ED91FC91028440
:10126000F385E02D4B835C8369837A830995D501EF
:10127000ED91FC9169817A819B012C0D3D1D2150DE
:1012800031090488F589E02D78014B815C818A0160
:10129000C5010995D501ED91FC910688F789E02DEE
:1012A000C5010F900F900F900F90DF91CF911F917C
:1012B0000F91FF90EF90DF90CF90BF90AF90099487
:1012C000AF92BF92CF92DF92EF92FF920F931F9354
:1012D000CF93DF9300D000D0CDB7DEB75C016901BA
:1012E000DC01ED91FC910284F385E02D4B835C835E
:1012F00069837A830995D501ED91FC914B815C81DD
:10130000C40ED51EB1E0CB1AD1080488F589E02DB2
:101310007801860169817A819B01C5010995D50112
:10132000ED91FC910688F789E02DC5010F900F9093
:101330000F900F90DF91CF911F910F91FF90EF9041
:10134000DF90CF90BF90AF9009940895EF92FF92F5
:101350000F931F93DC01ED91FC9100A0F1A1E02D12
:1013600009951F910F91FF90EF9008950F931F9390
:10137000DC01ED91FC91068CF78DE02D09951F9114
:101380000F9108950F931F93DC01ED91FC91048C54
:10139000F58DE02D09951F910F910895DC01ED91D8
:1013A000FC910084F185E02D099408952F923F92DD
:1013B0004F925F926F927F928F929F92AF92BF9265
:1013C000CF92DF92EF92FF920F931F93CF93DF9311
:1013D00000D01F92CDB7DEB74C017B836A836A01D0
:1013E000590117019801241B350B37FF03C03195B4
:1013F00021953109C5014A815B81841B950B97FFBB
:1014000003C091958195910951E059838217930703
:1014100014F019820BC09A2D8B2D5801092F182F0B
:101420009A818B81DB82CA82C92ED82E8A819B81C8
:10143000A816B9065CF49C2D8D2D6801092F182F74
:101440009A818B81BB82AA82A92EB82E2501AA81FE
:10145000BB814A1A5B0A38016C187D0877FE03C00D
:10146000719461947108720157FE03C0BFEFEB1ACB
:10147000FB0AF594E794C016D1061CF00FEF1FEF9E
:101480001FC001E010E01CC0D401ED91FC91B981B6
:101490000484F585E02D9101BB23C1F04A815B8175
:1014A000B601C4010995E618F708F7FE04C0C00E9E
:1014B000D11EE40CF51CEA81FB813196FB83EA83A3
:1014C0004A815B81A416B506FCF604C0A6016A81B8
:1014D0007B81E7CF0F900F900F90DF91CF911F91FD
:1014E0000F91FF90EF90DF90CF90BF90AF909F90C3
:1014F0008F907F906F905F904F903F902F900895C6
:10150000089580E090E00895CF93DF93282F30E096
:10151000F901EE54FA4F8491F901E053FA4FD49156
:10152000F901E251FA4FC491CC2391F081110E944C
:101530001C04EC2FF0E0EE0FFF1FE855FA4FA591C9
:10154000B491EC91ED2381E090E021F480E002C0C1
:1015500080E090E0DF91CF9108951F93CF93DF93C8
:10156000282F30E0F901EE54FA4F8491F901E0534D
:10157000FA4FD491F901E251FA4FC491CC23C9F04A
:10158000162F81110E941C04EC2FF0E0EE0FFF1FBC
:10159000EC51FA4FA591B4918FB7F894111105C091
:1015A0009C91ED2FE095E92302C0EC91ED2BEC939B
:1015B0008FBFDF91CF911F910895CF93DF9390E07C
:1015C000FC01E053FA4F2491FC01E251FA4F84915F
:1015D000882361F190E0880F991FFC01EA53FA4FCC
:1015E000C591D491FC01EC51FA4FA591B4916111D0
:1015F00009C09FB7F8948881209582238883EC9155
:101600002E230BC0623061F49FB7F8943881822F8B
:10161000809583238883EC912E2B2C939FBF06C04B
:101620008FB7F894E8812E2B28838FBFDF91CF915D
:1016300008958F929F92AF92BF92CF92DF92EF92D6
:10164000FF926B017C010E9445044B015C01C114B7
:10165000D104E104F104F1F00E944504DC01CB0166
:1016600088199909AA09BB09883E9340A105B105CB
:1016700070F321E0C21AD108E108F10888EE880E63
:1016800083E0981EA11CB11CC114D104E104F10433
:1016900019F7DDCFFF90EF90DF90CF90BF90AF9024
:1016A0009F908F9008951F920F920FB60F92112462
:1016B0002F933F938F939F93AF93BF938091570343
:1016C00090915803A0915903B0915A033091560359
:1016D00023E0230F2D3720F40196A11DB11D05C075
:1016E00026E8230F0296A11DB11D20935603809377
:1016F000570390935803A0935903B0935A038091D2
:101700005B0390915C03A0915D03B0915E03019631
:10171000A11DB11D80935B0390935C03A0935D03B7
:10172000B0935E03BF91AF919F918F913F912F91A5
:101730000F900FBE0F901F9018954F925F926F926F
:101740007F928F929F92AF92BF92CF92DF92EF9251
:10175000FF920F931F93CF93DF9388EF91E0E2E026
:10176000F1E0DF019C011D9221503040E1F7109221
:10177000700310926F03109272031092710300E2D3
:1017800010E020E130E048E650E060E170E080E009
:1017900090E00E947F0E0E94400E81E080937703CC
:1017A00081E090E0909376038093750390937403A7
:1017B000809373031092700310926F031092720360
:1017C0001092710368E373E083E693E00E940A0FCE
:1017D00088E490E09093700380936F0310927203FB
:1017E00010927103C0900001D09001010D2C000CEB
:1017F000EE08FF08F7FE0EC06DE283E693E00E945C
:10180000030F44275527BA014C195D096E097F095A
:101810002AE003C02AE0B701A60183E693E00E9414
:101820001F0F21E030E04FE150E068E470E083E614
:1018300093E00E94CE0921E030E04BE150E068E403
:1018400070E083E693E00E94CE0921E030E04DE1B4
:1018500050E06AE470E083E693E00E94CE0921E064
:1018600030E04DE150E066E470E083E693E00E94F2
:10187000CE09C9E4D0E088E6882E912C90E9A92E03
:10188000B12C23E9622E712C35E6432E512C7401C4
:10189000EC1AFD0A21E030E0A701BE0183E693E0E7
:1018A0000E94CE0985010C1B1D0B21E030E0A70131
:1018B000B80183E693E00E94CE097E013EE2E31A7E
:1018C000F10821E030E0A701BE0183E693E00E9429
:1018D000CE0921E030E0A701B80183E693E00E9441
:1018E000CE097E018BE2E81AF1086301CC1ADD0A09
:1018F00021E030E0A701B60183E693E00E94CE0923
:101900008E010350110921E030E0A701B80183E600
:1019100093E00E94CE097201EC1AFD0A21E030E04A
:10192000A701B60183E693E00E94CE0921E030E0F2
:10193000A701B80183E693E00E94CE09CA34D1051D
:1019400019F0CAE4D0E0A3CF8CE490E09093700348
:1019500080936F038BE190E0909372038093710307
:1019600065E473E083E693E00E940A0F82E08093CF
:10197000770384E190E09093700380936F039093DA
:1019800072038093710340915F03509160036091F3
:1019900061037091620321E030E083E693E00E94EE
:1019A000A10FDF91CF911F910F91FF90EF90DF90EA
:1019B000CF90BF90AF909F908F907F906F905F90EF
:1019C0004F900C94400E90917D039F3F21F4909195
:1019D0007E039F3F59F128E030E040E8E091840326
:1019E000F091850350819091870390959523908382
:1019F000E0918203F091830390918603542F582342
:101A000019F05081952B03C05081909595239083B8
:101A1000E0918403F0918503508190918703952B89
:101A20009083469521503109C9F608958EBD000076
:101A30000DB407FEFDCF8EB50895CF92DF92EF92E1
:101A4000FF920F931F93CF93DF936C017A018B0169
:101A5000C0E0D0E0CE15DF0589F0D8016D918D0191
:101A6000D601ED91FC910190F081E02DC601099520
:101A7000892B11F47E0102C02196ECCFC701DF91C2
:101A8000CF911F910F91FF90EF90DF90CF9008952D
:101A9000FC01538D448D252F30E0842F90E0821B74
:101AA000930B541710F0CF96089501970895FC01F9
:101AB000918D828D981761F0828DDF01A80FB11D85
:101AC0005D968C91928D9F5F9F73928F90E00895A9
:101AD0008FEF9FEF0895FC01918D828D981731F063
:101AE000828DE80FF11D858D90E008958FEF9FEFB7
:101AF0000895FC01918D228D892F90E0805C9F4F8D
:101B0000821B91098F73992708958FE893E00E94B3
:101B1000790D21E0892B09F420E0822F0895FC0142
:101B2000848DDF01A80FB11DA35ABF4F2C91848D66
:101B300090E001968F739927848FA689B7892C939B
:101B4000A089B1898C9180648C93938D848D981336
:101B500006C00288F389E02D80818F7D80830895FF
:101B6000EF92FF920F931F93CF93DF93EC0181E0ED
:101B7000888F9B8D8C8D981305C0E889F9898081A9
:101B800085FD24C0F62E0B8D10E00F5F1F4F0F73E5
:101B90001127E02E8C8DE8120CC00FB607FCFACF8F
:101BA000E889F989808185FFF5CFCE010E948F0DEC
:101BB000F1CF8B8DFE01E80FF11DE35AFF4FF0824C
:101BC0000B8FEA89FB898081806207C0EE89FF89DB
:101BD0006083E889F98980818064808381E090E076
:101BE000DF91CF911F910F91FF90EF900895CF93C8
:101BF000DF93EC01888D8823C9F0EA89FB89808115
:101C000085FD05C0A889B9898C9186FD0FC00FB6E6
:101C100007FCF5CF808185FFF2CFA889B9898C9127
:101C200085FFEDCFCE010E948F0DE7CFDF91CF91E1
:101C3000089580E090E0892B29F00E94850D8111A4
:101C40000C9400000895CF93C82F60E080917F032B
:101C50000E94AD0A8091810318161CF460E00E9476
:101C6000AD0A8C2F0E94E30C80918103181624F496
:101C700061E0CF910C94AD0ACF9108950E94AF1509
:101C8000EF92FF920F931F93CF9382E0E82E81E0B3
:101C9000F82EC0E08C2F80640E94230E80E80E9402
:101CA000230E61E080917F030E94AD0A8091810341
:101CB00018161CF460E00E94AD0A00E010E0F70185
:101CC000E00FF11F80810E94E30C0F5F1F4F04356E
:101CD0001105A9F78091810318161CF461E00E9498
:101CE000AD0ACF5F84E5E80EF11CC63099F680E4BA
:101CF000CF911F910F91FF90EF900C94230E3F9284
:101D00004F925F926F927F928F929F92AF92BF920B
:101D1000CF92DF92EF92FF920F931F93CF93DF93B7
:101D200000D000D000D0CDB7DEB72C013B014A0176
:101D30005901C901079697FD07969C0193E03595D7
:101D400027959A95E1F73A832983C12CD12CE12C70
:101D5000F12C312CC701860D971D9C838B83E016D7
:101D6000F106CCF51E821D82ED81FE81EA15FB0590
:101D700054F58D819E8187709927892B11F0330C42
:101D80000EC0ED81FE81F7FD379683E0F595E7956E
:101D90008A95E1F7EC0DFD1DE80DF91D349037FE35
:101DA0000CC021E030E04B815C816D817E81640D4F
:101DB000751D83E693E00E94CE098D819E81019678
:101DC0009E838D83D1CFFFEFEF1AFF0A29813A81DD
:101DD000C20ED31EBFCF26960FB6F894DEBF0FBE3D
:101DE000CDBFDF91CF911F910F91FF90EF90DF90CA
:101DF000CF90BF90AF909F908F907F906F905F90AB
:101E00004F903F900895DC01ED91FC910190F0819D
:101E1000E02D09946115710579F0FB010190002016
:101E2000E9F73197AF01461B570BDC01ED91FC91AF
:101E30000280F381E02D099480E090E008954F92B4
:101E40005F926F927F92EF92FF920F931F93CF93C7
:101E5000DF93CDB7DEB7A1970FB6F894DEBF0FBE04
:101E6000CDBF7C01FA01CB0119A2223008F42AE08F
:101E70008E010F5D1F4F422E512C612C712CBF0122
:101E8000A30192010E948715F901CA0101501109AD
:101E90006A3014F4605D01C0695CD8016C93232B37
:101EA000242B252B61F7B801C7010E940A0FA196C8
:101EB0000FB6F894DEBF0FBECDBFDF91CF911F915B
:101EC0000F91FF90EF907F906F905F904F900895EB
:101ED000CF92DF92EF92FF92CF93DF936C01990F35
:101EE000EE08FF08F7FE16C06DE28FE893E00E944F
:101EF000030FEC0144275527BA014C195D096E09FF
:101F00007F092AE08FE893E00E941F0F7C01EC0E0E
:101F1000FD1E08C02AE0B701A6018FE893E00E94E9
:101F20001F0F7C0167E473E08FE893E00E940A0FC3
:101F30008E0D9F1DDF91CF91FF90EF90DF90CF909E
:101F400008957F928F929F92AF92BF92CF92DF922D
:101F5000EF92FF920F931F93CF93DF938C016A014F
:101F60007B01722E9A01AB01C701B6010E94821556
:101F7000882319F06AE473E01AC046015701E89417
:101F8000B7F82FEF3FEF4FE75FE7C501B4010E94BD
:101F90008215811111C02FEF3FEF4FE75FE7C501B9
:101FA000B4010E94B81318163CF46EE473E0C80143
:101FB0000E940A0FEC0188C02FEF3FEF4FE75FE46C
:101FC000C701B6010E94101518161CF462E573E0F3
:101FD000EECF2FEF3FEF4FE75FECC701B6010E9456
:101FE000B81387FDF3CF20E030E0A901C701B601A7
:101FF0000E94B81387FF0AC06DE2C8010E94030F58
:10200000EC01F7FAF094F7F8F09402C0C0E0D0E0E9
:10201000B12C60E070E080E09FE3B71440F420E072
:1020200030E040E251E40E94BD13B394F6CF9B012F
:10203000AC01C701B6010E944C136B017C010E94E8
:102040002F144B015C010E945E149B01AC01C7017F
:10205000B6010E944B136B017C012AE0B501A4017B
:10206000C8010E941F0FC80FD91F772031F06EE200
:10207000C8010E94030FC80FD91F772029F120E063
:1020800030E040E251E4C701B6010E9415154B0152
:102090005C010E942F146B01E12CF12C2AE0B701A6
:1020A000A601C8010E941F0FC80FD91FC701B601A2
:1020B0000E945E149B01AC01C501B4010E944B1348
:1020C0006B017C017A94D9CF67E473E0C8010E9468
:1020D0000A0F8C0F9D1FDF91CF911F910F91FF90E1
:1020E000EF90DF90CF90BF90AF909F908F907F90B8
:1020F00008951F920F920FB60F9211242F933F93C2
:102100004F935F936F937F938F939F93AF93BF93FF
:10211000EF93FF938FE893E00E948F0DFF91EF9173
:10212000BF91AF919F918F917F916F915F914F91EF
:102130003F912F910F900FBE0F901F9018951F92F7
:102140000F920FB60F9211242F938F939F93EF93BB
:10215000FF93E0919F03F091A0038081E091A5039C
:10216000F091A60382FD12C090818091A8038F5F39
:102170008F732091A903821751F0E091A803F0E03A
:10218000E157FC4F958F8093A80301C08081FF9198
:10219000EF919F918F912F910F900FBE0F901F90F5
:1021A0001895EFE8F3E01382128288EE93E0A0E046
:1021B000B0E084839583A683B7838EEF92E091830A
:1021C000808385EC90E09587848784EC90E0978706
:1021D000868780EC90E0918B808B81EC90E0938BF4
:1021E000828B82EC90E0958B848B86EC90E0978BD1
:1021F000868B118E128E138E148EE3E6F3E013821B
:10220000128224E530E03583248380E390E09783D5
:1022100086833187208793878287158A158614865F
:102220001786168681E0848B2FEF3FEF338B228B4E
:10223000318B208B868B178A118E108E80E193E074
:102240009183808386E0828F87E0838F85E0848F0F
:1022500083E0858F84E0868F0895789484B58260CA
:1022600084BD84B5816084BD85B5826085BD85B53A
:10227000816085BD80916E00816080936E001092B8
:102280008100809181008260809381008091810033
:1022900081608093810080918000816080938000C4
:1022A0008091B10084608093B1008091B000816022
:1022B0008093B00080917A00846080937A0080914E
:1022C0007A00826080937A0080917A0081608093A6
:1022D0007A0080917A00806880937A001092C10021
:1022E000E0919F03F091A00382E08083E0919B0343
:1022F000F0919C031082E0919D03F0919E038FEC7E
:1023000080831092A703E091A303F091A40386E0D9
:102310008083E091A103F091A2038081806180839A
:10232000E091A103F091A203808188608083E09115
:10233000A103F091A203808180688083E091A103D2
:10234000F091A20380818F7D808380917D038F3FF8
:1023500029F490917E039F3F09F439C161E00E9406
:10236000DD0A61E080917E030E94DD0A80917E0398
:10237000082E000C990BFC01E251FA4FE491F0E0B9
:10238000EE0FFF1FEC51FA4F2591349130938503E6
:1023900020938403FC01E053FA4FE491E093870318
:1023A00080917D03082E000C990BFC01E251FA4F3D
:1023B000E491F0E0EE0FFF1FEC51FA4F25913491BC
:1023C0003093830320938203FC01E053FA4FE4919E
:1023D000E093860361E080917F030E94DD0A809193
:1023E000800318161CF461E00E94DD0A80918103CD
:1023F00018161CF461E00E94DD0A80918003181613
:1024000074F460E00E94AD0A64EF71E080E090E057
:102410000E94190B61E0809180030E94AD0A81E265
:102420000E94230E84E10E94230E88EA0E94230E5C
:1024300080E20E94230E8CE00E94230E0E94400E38
:1024400081E20E94230E8CEB0E94230E80E20E9408
:10245000230E88EF91E0E2E0F1E0DF019C011D92A4
:1024600021503040E1F71092700310926F031092E8
:1024700072031092710300E310E020E530E042E0C7
:1024800056E060E070E082E090E00E947F0E0E94E3
:10249000400E60ED77E080E090E00E94190B61E073
:1024A00088E00E94DD0A60E08FE00E94DD0A60E0C3
:1024B00080E10E94DD0A10E410937C0080917A0094
:1024C000806480937A0080917A0086FDFCCF6091D1
:1024D00078008091790070E0782B70938E03609380
:1024E0008D03072E000C880B990B0E94601420E0CE
:1024F00030E040E85AE30E94151520E030E44CE952
:1025000055E40E9415156093890370938A038093A4
:102510008B0390938C0320E030E040E251E40E9472
:10252000BD13AB01BC0140935F0350936003609304
:1025300061037093620322E030E08FE893E00E9431
:10254000A10F0E949D0B6091000170910101072E67
:10255000000C880B990B0E9460149B01AC016091E8
:102560005F037091600380916103909162030E9408
:10257000101518163CF461E088E00E94AD0AC5E031
:10258000D0E002C060E0F8CF8FE00E94840A892B7F
:1025900041F48091000190910101893E93400CF437
:1025A00056C080E10E94840A892B31F48091000199
:1025B0009091010197FF5DC068EC70E080E090E0D1
:1025C0000E94190B219701F70E94190E75CFCFB702
:1025D000F89480918803811127C0E8EFF5E0849199
:1025E000EAEDF5E09491E82FF0E0EE0FFF1FEA53DB
:1025F000FA4FA591B491EC91E92321F461E08AE0CE
:102600000E94AD0A61E08AE00E94DD0A8CB580611B
:102610008CBD8CB580648CBD61E08DE00E94DD0ACC
:1026200061E08BE00E94DD0A809188038F5F8093D8
:102630008803CFBF8CB58C7F8CBD8DB58E7F8DBD53
:102640008CB5837F8CBD8CB58F7D8CBDC3CE8091C6
:102650000001909101010196909301018093000186
:102660000E949D0B80910001909101010E94680FD2
:1026700098CF809100019091010101979093010101
:102680008093000180910001909101010E94680FE8
:102690000E949D0B91CF5058BB27AA270E9463131D
:1026A0000C94D6140E94C81438F00E94CF1420F065
:1026B00039F49F3F19F426F40C94C5140EF4E095F8
:1026C000E7FB0C94BF14E92F0E94E71458F3BA17E4
:1026D000620773078407950720F079F4A6F50C9438
:1026E00009150EF4E0950B2EBA2FA02D0B01B901A0
:1026F00090010C01CA01A0011124FF27591B99F078
:10270000593F50F4503E68F11A16F040A22F232F83
:10271000342F4427585FF3CF469537952795A795D3
:10272000F0405395C9F77EF41F16BA0B620B730B7A
:10273000840BBAF09150A1F0FF0FBB1F661F771FEB
:10274000881FC2F70EC0BA0F621F731F841F48F4A0
:10275000879577956795B795F7959E3F08F0B0CF29
:102760009395880F08F09927EE0F97958795089510
:102770000E949B1408F481E008950E94D1130C94E8
:10278000D6140E94CF1458F00E94C81440F029F4C7
:102790005F3F29F00C94BF1451110C940A150C944E
:1027A000C5140E94E71468F39923B1F3552391F3FC
:1027B000951B550BBB27AA2762177307840738F0B0
:1027C0009F5F5F4F220F331F441FAA1FA9F335D00D
:1027D0000E2E3AF0E0E832D091505040E695001CC1
:1027E000CAF72BD0FE2F29D0660F771F881FBB1F7B
:1027F000261737074807AB07B0E809F0BB0B802D59
:10280000BF01FF2793585F4F3AF09E3F510578F084
:102810000C94BF140C940A155F3FE4F3983ED4F374
:10282000869577956795B795F7959F5FC9F7880F58
:10283000911D9695879597F90895E1E0660F771FAA
:10284000881FBB1F621773078407BA0720F0621B3B
:10285000730B840BBA0BEE1F88F7E09508950E9466
:10286000EF1488F09F5798F0B92F9927B751B0F01F
:10287000E1F0660F771F881F991F1AF0BA95C9F704
:1028800014C0B13091F00E940915B1E008950C9484
:102890000915672F782F8827B85F39F0B93FCCF337
:1028A000869577956795B395D9F73EF49095809581
:1028B000709561957F4F8F4F9F4F0895E89409C0A1
:1028C00097FB3EF490958095709561957F4F8F4F63
:1028D0009F4F9923A9F0F92F96E9BB279395F69579
:1028E000879577956795B795F111F8CFFAF4BB0FF7
:1028F00011F460FF1BC06F5F7F4F8F4F9F4F16C05B
:10290000882311F096E911C0772321F09EE8872FE4
:10291000762F05C0662371F096E8862F70E060E0A0
:102920002AF09A95660F771F881FDAF7880F969519
:10293000879597F90895990F0008550FAA0BE0E8BD
:10294000FEEF16161706E807F907C0F01216130671
:10295000E407F50798F0621B730B840B950B39F4B1
:102960000A2661F0232B242B252B21F408950A2617
:1029700009F4A140A6958FEF811D811D089597F957
:102980009F6780E870E060E008959FEF80EC089515
:1029900000240A941616170618060906089500243E
:1029A0000A9412161306140605060895092E0394B8
:1029B000000C11F4882352F0BB0F40F4BF2B11F42C
:1029C00060FF04C06F5F7F4F8F4F9F4F089557FD8B
:1029D0009058440F551F59F05F3F71F04795880F8D
:1029E00097FB991F61F09F3F79F087950895121624
:1029F00013061406551FF2CF4695F1DF08C01616D0
:102A000017061806991FF1CF869571056105089480
:102A10000895E894BB2766277727CB0197F9089597
:102A20000E949B1408F48FEF08950E9428150C94BF
:102A3000D6140E94C81438F00E94CF1420F09523B9
:102A400011F00C94BF140C94C51411240C940A15A5
:102A50000E94E71470F3959FC1F3950F50E0551F46
:102A6000629FF001729FBB27F00DB11D639FAA27E3
:102A7000F00DB11DAA1F649F6627B00DA11D661F32
:102A8000829F2227B00DA11D621F739FB00DA11D53
:102A9000621F839FA00D611D221F749F3327A00D0D
:102AA000611D231F849F600D211D822F762F6A2FA9
:102AB00011249F5750409AF0F1F088234AF0EE0F0E
:102AC000FF1FBB1F661F771F881F91505040A9F73B
:102AD0009E3F510580F00C94BF140C940A155F3F83
:102AE000E4F3983ED4F3869577956795B795F79577
:102AF000E7959F5FC1F7FE2B880F911D96958795EF
:102B000097F908950E949B14880B990B0895A1E2F0
:102B10001A2EAA1BBB1BFD010DC0AA1FBB1FEE1F57
:102B2000FF1FA217B307E407F50720F0A21BB30BA2
:102B3000E40BF50B661F771F881F991F1A9469F71E
:102B400060957095809590959B01AC01BD01CF017A
:102B50000895EE0FFF1F0590F491E02D099481E098
:0C2B600090E0F8940C94B415F894FFCFAA
:102B6C001E0000000000000000000000000000003B
:102B7C000000000000000000000000000000000049
:102B8C000000000000000000C0E0F0F8FCFCFEFFBC
:102B9C00FCE000000000000000000000000000004D
:102BAC000000000000000000000000000000000019
:102BBC000000000000000000000000000000000009
:102BCC0000000000000000F8F8F8F8F8F8F8F8F841
:102BDC00F8F8F8F0F0E0E0C080C0FCFFFFFFFF7FEA
:102BEC003F7FFFFFFFFFFF00000000000000000020
:102BFC0000000000000000000000000000000000C9
:102C0C0000000000000000000000000000000000B8
:102C1C000000000000000000000000000F1F3F7FBC
:102C2C00FFFFFFFFFFFFFFFFE7C7C7878F9F9FFFD8
:102C3C00FFFFC1C0E0FCFFFFFFFFFFFCFCFCFCFE44
:102C4C00FEFEFCFCF8F8F0E0C0C000000000000044
:102C5C000000000000000000000000000000000068
:102C6C000000000000000000000000000000000058
:102C7C0000000080C0E0F1FBFFFFFFFFFF7F1F0F94
:102C8C000F87E7FFFFFF1F1F3FF9F8F8F8F8F8F878
:102C9C00FDFFFFFFFFFFFFFFFFFF7F3F0F0701005F
:102CAC000000000000000000000000000000000018
:102CBC000000000000000000000000000000000008
:102CCC000000000000F0FEFFFFFFFFFFFFFFFFFF13
:102CDC00FFFE7E3F3F0F1FFFFFFFFCF0E0F1FFFF09
:102CEC00FFFFFFFCF00101010101010101000000E7
:102CFC0000000000000000000000000000000000C8
:102D0C0000000000000000000000000000000000B7
:102D1C000000000000000000000303030303030392
:102D2C00030101010100000000000000030F1F3F20
:102D3C007F7FFFFFFFFF7F7F1F030000000000006D
:102D4C000000000000000000000000000000000077
:102D5C000000000000000000000000000000B00DAA
:102D6C001D0D480DF70D790D570D6B0D0000000072
:102D7C0002071D0D810A800A6A04D509CE09A6092D
:102D8C00C209B609D609A509D704D60460091C09DD
:102D9C00CC08AE083708D80754656D70657261743D
:102DAC007572613A0043000D0A006E616E00696E27
:062DBC0066006F76660060
:107E0000112484B714BE81FFF0D085E080938100F7
:107E100082E08093C00088E18093C10086E0809377
:107E2000C20080E18093C4008EE0C9D0259A86E02C
:107E300020E33CEF91E0309385002093840096BBD3
:107E4000B09BFECF1D9AA8958150A9F7CC24DD24C4
:107E500088248394B5E0AB2EA1E19A2EF3E0BF2EE7
:107E6000A2D0813461F49FD0082FAFD0023811F036
:107E7000013811F484E001C083E08DD089C08234E0
:107E800011F484E103C0853419F485E0A6D080C0E4
:107E9000853579F488D0E82EFF2485D0082F10E0AE
:107EA000102F00270E291F29000F111F8ED06801E7
:107EB0006FC0863521F484E090D080E0DECF843638
:107EC00009F040C070D06FD0082F6DD080E0C81688
:107ED00080E7D80618F4F601B7BEE895C0E0D1E017
:107EE00062D089930C17E1F7F0E0CF16F0E7DF06D8
:107EF00018F0F601B7BEE89568D007B600FCFDCFD4
:107F0000A601A0E0B1E02C9130E011968C91119780
:107F100090E0982F8827822B932B1296FA010C0160
:107F200087BEE89511244E5F5F4FF1E0A038BF0790
:107F300051F7F601A7BEE89507B600FCFDCF97BE46
:107F4000E89526C08437B1F42ED02DD0F82E2BD052
:107F50003CD0F601EF2C8F010F5F1F4F84911BD097
:107F6000EA94F801C1F70894C11CD11CFA94CF0C13
:107F7000D11C0EC0853739F428D08EE10CD085E9AC
:107F80000AD08FE07ACF813511F488E018D01DD067
:107F900080E101D065CF982F8091C00085FFFCCF94
:107FA0009093C60008958091C00087FFFCCF809118
:107FB000C00084FD01C0A8958091C6000895E0E648
:107FC000F0E098E1908380830895EDDF803219F02E
:107FD00088E0F5DFFFCF84E1DECF1F93182FE3DFCA
:107FE0001150E9F7F2DF1F91089580E0E8DFEE27F6
:047FF000FF270994CA
:027FFE00040479
:0400000300007E007B
:00000001FF
