:100000000C94CD030C94F5030C94F5030C94F503B8
:100010000C94F5030C94F5030C94F5030C94F50380
:100020000C94F5030C94F5030C94F5030C94F50370
:100030000C94F5030C94F5030C94F5030C94F50360
:100040000C94B90B0C94F5030C94F5030C94F50384
:100050000C94F5030C94F5030C94F5030C94F50340
:100060000C94F5030C94F50300000000003E5B4F78
:100070005B3E3E6B4F6B3E1C3E7C3E1C183C7E3C08
:10008000181C577D571C1C5E7F5E1C00183C180016
:10009000FFE7C3E7FF0018241800FFE7DBE7FF30A6
:1000A000483A060E2629792926407F050507407F14
:1000B00005253F5A3CE73C5A7F3E1C1C08081C1C87
:1000C0003E7F14227F22145F5F005F5F06097F017D
:1000D0007F006689956A606060606094A2FFA29468
:1000E00008047E040810207E201008082A1C080836
:1000F0001C2A08081E101010100C1E0C1E0C303884
:100100003E3830060E3E0E06000000000000005F84
:1001100000000007000700147F147F14242A7F2AA0
:100120001223130864623649562050000807030062
:10013000001C2241000041221C002A1C7F1C2A08AE
:10014000083E080800807030000808080808000011
:1001500060600020100804023E5149453E00427F85
:10016000400072494949462141494D331814127FD4
:100170001027454545393C4A494931412111090774
:100180003649494936464949291E000014000000F5
:1001900040340000000814224114141414140041C7
:1001A00022140802015909063E415D594E7C121184
:1001B000127C7F494949363E414141227F414141BC
:1001C0003E7F494949417F090909013E4141517337
:1001D0007F0808087F00417F41002040413F017FA8
:1001E000081422417F404040407F021C027F7F0470
:1001F00008107F3E4141413E7F090909063E4151B9
:10020000215E7F09192946264949493203017F01A8
:10021000033F4040403F1F2040201F3F4038403FA9
:10022000631408146303047804036159494D4300BF
:100230007F4141410204081020004141417F0402F6
:10024000010204404040404000030708002054548D
:1002500078407F284444383844444428384444286B
:100260007F385454541800087E090218A4A49C78BE
:100270007F0804047800447D40002040403D007F1A
:100280001028440000417F40007C047804787C08FA
:100290000404783844444438FC18242418182424CE
:1002A00018FC7C08040408485454542404043F44B3
:1002B000243C4040207C1C2040201C3C4030403CE2
:1002C00044281028444C9090907C4464544C440042
:1002D00008364100000077000000413608000201A6
:1002E0000204023C2623263C1EA1A161123A404092
:1002F000207A38545455592155557941225454780F
:1003000042215554784020545579400C1E527212A7
:100310003955555559395454545939555454580030
:1003200000457C410002457D420001457C407D1234
:1003300011127DF0282528F07C5455450020545496
:100340007C547C0A097F4932494949323A44444441
:100350003A324A4848303A4141217A3A424020787C
:10036000009DA0A07D3D4242423D3D4040403D3C7D
:1003700024FF2424487E4943662B2FFC2F2BFF09A2
:1003800029F620C0887E0903205454794100004496
:100390007D413048484A32384040227A007A0A0A81
:1003A000727D0D19317D2629292F282629292926F4
:1003B00030484D4020380808080808080808382F39
:1003C00010C8ACBA2F102834FA00007B00000814C3
:1003D0002A142222142A14085500550055AA55AA99
:1003E00055AAFF55FF55FF000000FF00101010FF39
:1003F00000141414FF001010FF00FF1010F010F094
:10040000141414FC001414F700FF0000FF00FF1484
:1004100014F404FC141417101F10101F101F1414D0
:10042000141F00101010F0000000001F101010101A
:100430001F10101010F010000000FF10101010100E
:1004400010101010FF10000000FF140000FF00FF4C
:1004500000001F10170000FC04F4141417101714E8
:1004600014F404F40000FF00F7141414141414140A
:10047000F700F7141414171410101F101F1414147D
:10048000F4141010F010F000001F101F0000001FE7
:1004900014000000FC140000F010F01010FF10FF1A
:1004A000141414FF141010101F00000000F010FFAF
:1004B000FFFFFFFFF0F0F0F0F0FFFFFF0000000093
:1004C00000FFFF0F0F0F0F0F3844443844FC4A4A17
:1004D0004A347E02020606027E027E0263554941CC
:1004E000633844443C04407E201E2006027E020203
:1004F00099A5E7A5991C2A492A1C4C7201724C3017
:100500004A4D4D303048784830BC625A463D3E49ED
:100510004949007E0101017E2A2A2A2A2A44445F91
:10052000444440514A444040444A51400000FF0185
:1005300003E080FF000008086B6B08361236243693
:10054000060F090F060000181800000010100030F8
:1005500040FF0101001F01011E00191D1712003C80
:100560003C3C3C00000000000000000800020100CC
:10057000000304070000000000000000000000006D
:10058000240027002A0001020408102040800102F4
:1005900004081020010204081020000000002500BB
:1005A00028002B00040404040404040402020202D0
:1005B0000202030303030303000000000000000025
:1005C000000000000000000000000000000000002B
:1005D000000000000000000000000000000000001B
:1005E000000000000000000000000000000000000B
:1005F00000000000000000002000000000000000DB
:100600000001E0E00000000000000007E1E0000061
:1006100000000000000FC3E00000000000000033F5
:10062000C7C00001C000000000678FC00003C00009
:10063000000000C78EC00007C0000000038F1D80AF
:10064000000780000000071F3980000780000000BD
:100650000E1E3B000000000000001C3C7300000068
:1006600000000000383C7601F01E07C0001C73FC3F
:10067000FE07F07E1FC0003FFFFFFC0F71FE3FE052
:10068000007FFFFFF81CF7FE7FE0007FFFFFF039DF
:10069000E7DCFDE0007FFFFDE07B871CF3E0000E60
:1006A00003C1C0F70019E3C0001C03C1C0FC00393E
:1006B000E3C0003807C3C1F03031C3B00070078118
:1006C000C3F07077C3F001E00F81E7F9E06DCFC0B0
:1006D00007C00F31FCFFC0F9FE000F800FE1F87F6B
:1006E00000F0FC000F000F80E03C01E078001E00ED
:1006F0000F00000001C000001C0000000000078087
:1007000000000000000000000F00000000000000DA
:1007100000000F0000000000000000001E000000AC
:100720000000000000003E0000000000000000008B
:100730003C00000000000000000038000000000045
:100740000000000030000000000000000000000079
:100750000000000000000000000000000000000099
:100760000000000000000000000000000000000089
:100770000000000000000000000000000000000079
:100780000000000000000000000000000000000069
:1007900000000000000000003D0E11241FBECFEF3E
:1007A000D8E0DEBFCDBF13E0A0E0B1E0E2EFFCE1B6
:1007B00002C005900D92A237B107D9F723E0A2E756
:1007C000B3E001C01D92A23AB207E1F713E0CDEC0D
:1007D000D3E004C02197FE010E946C0ECC3CD107EF
:1007E000C9F70E94030C0C94770E0C9400009091B2
:1007F00097039F3F21F4909198039F3F59F128E080
:1008000030E040E8E0919E03F0919F035081909189
:10081000A103909595239083E0919C03F0919D0313
:100820009091A003542F582319F05081952B03C0A9
:100830005081909595239083E0919E03F0919F03C2
:1008400050819091A103952B9083469521503109B9
:10085000C9F608958EBD00000DB407FEFDCF8EB51C
:10086000089508950895CF92DF92EF92FF920F932B
:100870001F93CF93DF936C017A018B01C0E0D0E02E
:10088000CE15DF0589F0D8016D918D01D601ED916E
:10089000FC910190F081E02DC6010995892B11F49E
:1008A0007E0102C02196ECCFC701DF91CF911F914D
:1008B0000F91FF90EF90DF90CF90089590E0FC01B2
:1008C000E859FA4F3491FC01EA57FA4F2491FC01A0
:1008D000EC55FA4FE491EE2309F43BC0332339F190
:1008E000333091F038F43130A9F0323001F584B56D
:1008F0008F7D12C0373091F03830A1F03430B9F428
:10090000809180008F7D03C0809180008F778093DD
:1009100080000DC084B58F7784BD09C08091B00080
:100920008F7703C08091B0008F7D8093B000F0E09E
:10093000EE0FFF1FE656FA4FA591B4918FB7F894CA
:10094000EC91611103C020952E2301C02E2B2C9316
:100950008FBF0895CF93C82F60E0809199030E94C4
:100960005E0480919B0318161CF460E00E945E04F4
:100970008C2F0E94F70380919B03181624F461E0EA
:10098000CF910C945E04CF910895EF92FF920F9354
:100990001F93CF9380E0E82E81E0F82EC0E08C2FEB
:1009A00080640E94AA0480E80E94AA0461E0809109
:1009B00099030E945E0480919B0318161CF460E06A
:1009C0000E945E0400E010E0F701E00FF11F80815B
:1009D0000E94F7030F5F1F4F04351105A9F780919F
:1009E0009B0318161CF461E00E945E04CF5F84E54F
:1009F000E80EF11CC63099F680E4CF911F910F915B
:100A0000FF90EF900C94AA04CF93DF9390E0FC0149
:100A1000EA57FA4F2491FC01EC55FA4F8491882350
:100A200061F190E0880F991FFC01E458FA4FC591DD
:100A3000D491FC01E656FA4FA591B491611109C019
:100A40009FB7F8948881209582238883EC912E2388
:100A50000BC0623061F49FB7F8943881822F809583
:100A600083238883EC912E2B2C939FBF06C08FB7D6
:100A7000F894E8812E2B28838FBFDF91CF910895C2
:100A80003FB7F8948091770390917803A091790310
:100A9000B0917A0326B5A89B05C02F3F19F00196A7
:100AA000A11DB11D3FBFBA2FA92F982F8827820FF4
:100AB000911DA11DB11DBC01CD0142E0660F771F44
:100AC000881F991F4A95D1F708958F929F92AF92F0
:100AD000BF92CF92DF92EF92FF926B017C010E9456
:100AE00040054B015C01C114D104E104F104F1F0B3
:100AF0000E944005DC01CB0188199909AA09BB09AC
:100B0000883E9340A105B10570F321E0C21AD108D7
:100B1000E108F10888EE880E83E0981EA11CB11C44
:100B2000C114D104E104F10419F7DDCFFF90EF9077
:100B3000DF90CF90BF90AF909F908F900895FC0171
:100B400077FD68C080859185681779070CF062C0D1
:100B500057FD60C082859385481759070CF05AC02D
:100B60008589823059F08330B1F08130D1F48FE241
:100B700090E0861B970BBA01AC0113C083E590E0AF
:100B8000FC01E61BF70BBF018FE290E0FC01E41BC8
:100B9000F50BAF0106C083E590E0841B950BAB011C
:100BA000BC0164357105B0F54033510598F5CA01B3
:100BB000E3E095958795EA95E1F747705527232B54
:100BC000A1F024E5289FF001299FF00D11246E0F5C
:100BD0007F1FFB01E050FF4F81E090E001C0880FD4
:100BE0004A95EAF79081892B14C024E5289FF001EB
:100BF000299FF00D11246E0F7F1FFB01E050FF4F66
:100C000081E090E001C0880F4A95EAF780959081D5
:100C10008923808308950895FC016370658B848126
:100C2000958126813781613039F0633029F09187D1
:100C3000808733872287089531872087938782872B
:100C400008952F923F924F925F926F927F928F9270
:100C50009F92AF92BF92CF92DF92EF92FF920F934B
:100C60001F93CF93DF93CDB7DEB76C970FB6F89491
:100C7000DEBF0FBECDBF9C8F8B8F5B011A011F8320
:100C80000E833701C982DC0158964D915C915997CA
:100C90004115510509F0E5C018968D919C91199761
:100CA000681779070CF0CAC11A968D919C911B9711
:100CB000281639060CF0C2C18C2C912CFB0136E0B1
:100CC000C39EE00DF11D1124FB87EA871E161F0647
:100CD0000CF0B4C1C40133E0880F991F3A95E1F7D5
:100CE0009D878C87820D931D181619060CF0A6C1DE
:100CF00057968C91811103C0203B08F02F5FAB8D7C
:100D0000BC8DED91FC9111970284F385E02DCD010E
:100D10002A8F09952A8DB5E02B9F90011124F501AA
:100D20003596FF87EE87BB82AA822501A9014A1961
:100D30005B09598B488BC10108969B8B8A8BE8898C
:100D4000F989E40DF51DE859FF4F949198876101E9
:100D50003D822C82A885A0FF13C0AB8DBC8DED9188
:100D6000FC91B981B13031F40484F585E02D2E81F8
:100D70003F8116C00684F785E02DEE80FF801AC003
:100D8000EE81FF816E167F06F1F0AB8DBC8DED918B
:100D9000FC91B981B13051F40484F585E02D9301C3
:100DA000A601B2018B8D9C8D09950DC00684F78537
:100DB000E02D7301840194014C815D816A817B8106
:100DC0008B8D9C8D0995E885E695E887FFEFCF1A16
:100DD000DF0A2C813D81280D391D3D832C834A89F2
:100DE0005B89C416D50609F0B5CF5FEF451A550AE1
:100DF0008A819B81880D991D9B838A83AE85BF85DF
:100E00004A165B0609F09BCFEE81FF816E167F06C6
:100E100009F4F2C0EB8DFC8DA081B181F981F13034
:100E200079F4B5016B5F7F4F5096ED91FC9151972E
:100E3000830128E030E0A1018B8D9C8D0995DCC0F9
:100E40006A857B85681979091E96ED91FC911F973B
:100E500073010C851D859401A1018B8D9C8D0995D5
:100E6000CBC0FA0134969491329765917491291B05
:100E7000CB01B7E02B9F800D911D1124FA01259124
:100E800034913B8B2A8BFC01459154915B834A83BF
:100E9000FC013296C490319654915E87329614913B
:100EA0003196D4908981823058F0612E012E000C49
:100EB0007708AD2D0D2C000CBB0BB987A88704C09B
:100EC00019861886612C712CAB8DBC8DED91FC912F
:100ED00011970284F385E02DCD010995B9818B2E00
:100EE000912C689CC001699C900D789C900D1124F8
:100EF000FC01EA0DFB1DFD87EC871C82712C612C27
:100F0000E12F110FFF0B95012E0F3F1F3B872A8703
:100F1000AC0CB11CA5014E0F5F1F5F8B4E8BC10146
:100F20008D0D911DD7FC9A95998F888F4E856416EB
:100F300008F062C0862D90E048855985480F591FFA
:100F4000489D9001499D300D589D300D1124D901C7
:100F5000A20DB31DB98BA88BAA84BB844C845D847D
:100F6000DC80BA85DB1AE88DF98DE80FF91FFD8B5F
:100F7000EC8B8D2D8A0D2E893F89A216B306B9F10F
:100F8000877061F48A819B810196EA89FB89AA8135
:100F9000BB81EA0FFB1F74909B838A8377FE20C07E
:100FA000AB8DBC8DED91FC91B981B13061F40484BD
:100FB000F585E02D2E813F814C895D89B5018B8DB2
:100FC0009C8D09950DC00684F785E02DEE80FF808D
:100FD0008401940148895989B2018B8D9C8D0995B2
:100FE000770CEFEFAE1ABE0A480C591CC2CF3C81F9
:100FF0003C0D3C8363949ACFAB8DBC8DED91FC91FD
:1010000011970688F789E02DCD016C960FB6F894FC
:10101000DEBF0FBECDBFDF91CF911F910F91FF902B
:10102000EF90DF90CF90BF90AF909F908F907F9088
:101030006F905F904F903F902F9009946C960FB6F1
:10104000F894DEBF0FBECDBFDF91CF911F910F91FE
:10105000FF90EF90DF90CF90BF90AF909F908F90D8
:101060007F906F905F904F903F902F900895AF9238
:10107000BF92CF92EF92FF920F931F93CF93DF9384
:10108000EC01262F888D998D009709F040C06A30B9
:1010900059F41D861C862C898E859F8538E0239FF8
:1010A000800D911D112441C06D3009F4AAC08E89B4
:1010B0008823C1F03C898C859D8546E0349F800D56
:1010C000911D112448855985481759075CF41D86E0
:1010D0001C868E859F8548E0349F800D911D1124CC
:1010E0009F878E87EA88FB88088919894E855F85E6
:1010F0006C857D85CC88CE010E9421062C898C854B
:101100009D8536E0239F800D911D112442C06A30D9
:1011100079F41D861C862C89FC013696E4918E8517
:101120009F852E9F800D911D11249F878E8769C0FA
:101130006D3009F466C0FC0134963491631708F4ED
:1011400060C03196E491E61708F45BC0FC0132966A
:10115000A590B490462F50E0431B510937E0349FCF
:10116000B001359F700D1124A60EB71EF501329601
:1011700034913196E491332311F0E1110DC0F50162
:101180003496E4912C898C859D85E29F800D911D7C
:1011900011249D878C8735C0F501359644915E8971
:1011A000552311F16C89E32FF0E0E40FF11D47FDA9
:1011B000FA956E9FD0016F9FB00D11244C855D850F
:1011C0004A0F5B1FE885F985E417F5076CF41D8667
:1011D0001C86FC013696E4918E859F856E9F800D5E
:1011E000911D11249F878E87EA88FB8808891989B9
:1011F0004E855F856C857D85CC88CE010E94210659
:10120000BECF81E090E0DF91CF911F910F91FF90D1
:10121000EF90CF90BF90AF9008956F927F928F9292
:101220009F92AF92BF92CF92DF92EF92FF920F9375
:101230001F93CF93DF93EC014B015A0169013801F1
:10124000E881F9810284F385E02D0995E881F9812F
:101250000288F389E02D87019601A501B401CE0132
:101260000995E881F981A501460D571D41505109A5
:101270000288F389E02D9601B401CE010995E88139
:10128000F9810088F189E02D9301A501B401CE0117
:101290000995E881F981C80CD91CB6016150710922
:1012A0000088F189E02D9301A501CE010995E8811F
:1012B000F9810688F789E02DCE01DF91CF911F914A
:1012C0000F91FF90EF90DF90CF90BF90AF909F90E5
:1012D0008F907F906F900994CF92DF92EF92FF9260
:1012E0000F931F93CF93DF9300D000D000D0CDB7E2
:1012F000DEB76C01DC01ED91FC916217730789F494
:10130000041715072CF4942F852FA801092F182FE7
:10131000041B150B98012F5F3F4F048CF58DE02DBA
:1013200012C04017510709F5261737072CF4962FDE
:10133000872FB901292F382F261B370B2F5F3F4FDF
:10134000068CF78DE02D8701C601099526960FB60C
:10135000F894DEBF0FBECDBFDF91CF911F910F91EB
:10136000FF90EF90DF90CF9008950284F385E02DF9
:101370002D833E834B835C8369837A830995D601F1
:10138000ED91FC910488F589E02D2D813E814B8102
:101390005C8169817A81C6010995D601ED91FC9144
:1013A0000688F789E02DC60126960FB6F894DEBFB1
:1013B0000FBECDBFDF91CF911F910F91FF90EF90A6
:1013C000DF90CF900994EF92FF920F931F93DC016F
:1013D000ED91FC9111971A960D911C911B971896FF
:1013E0002D913C91199700A0F1A1E02D7B0140E0E7
:1013F00050E060E070E009951F910F91FF90EF9031
:1014000008954F925F926F927F928F929F92AF92C8
:10141000BF92CF92DF92EF92FF920F931F93CF93E1
:10142000DF9300D0CDB7DEB76C015A013901480116
:10143000DC01ED91FC910284F385E02D69837A83D0
:1014400009956981462E7A81572E640C751CD60148
:10145000ED91FC91461457046CF40088F189E02D5D
:1014600087019401A501B201C6010995BFEF4B1A8E
:101470005B0AEDCF0688F789E02DC6010F900F902B
:10148000DF91CF911F910F91FF90EF90DF90CF9060
:10149000BF90AF909F908F907F906F905F904F9094
:1014A0000994AF92BF92CF92DF92EF92FF920F9387
:1014B0001F93CF93DF9300D000D0CDB7DEB75C0190
:1014C0006901DC01ED91FC910284F385E02D4B83F1
:1014D0005C8369837A830995D501ED91FC916981DB
:1014E0007A819B012C0D3D1D215031090488F5891D
:1014F000E02D78014B815C818A01C5010995D501F8
:10150000ED91FC910688F789E02DC5010F900F90B1
:101510000F900F90DF91CF911F910F91FF90EF905F
:10152000DF90CF90BF90AF900994AF92BF92CF92CF
:10153000DF92EF92FF920F931F93CF93DF9300D030
:1015400000D0CDB7DEB75C016901DC01ED91FC9103
:101550000284F385E02D4B835C8369837A8309954C
:10156000D501ED91FC914B815C81C40ED51EB1E09B
:10157000CB1AD1080488F589E02D780186016981AC
:101580007A819B01C5010995D501ED91FC910688F1
:10159000F789E02DC5010F900F900F900F90DF910C
:1015A000CF911F910F91FF90EF90DF90CF90BF9060
:1015B000AF900994EF92FF920F931F93DC01ED918E
:1015C000FC9100A0F1A1E02D09951F910F91FF90D2
:1015D000EF9008950F931F93DC01ED91FC91068C21
:1015E000F78DE02D09951F910F9108950F931F938B
:1015F000DC01ED91FC91048CF58DE02D09951F9196
:101600000F910895DC01ED91FC910084F185E02DAE
:1016100009942F923F924F925F926F927F928F9296
:101620009F92AF92BF92CF92DF92EF92FF920F9371
:101630001F93CF93DF9300D01F92CDB7DEB74C013D
:101640007B836A836A01590117019801241B350BBA
:1016500037FF03C0319521953109C5014A815B816E
:10166000841B950B97FF03C091958195910951E0DB
:1016700059838217930714F019820BC09A2D8B2D72
:101680005801092F182F9A818B81DB82CA82C92EBB
:10169000D82E8A819B81A816B9065CF49C2D8D2DCD
:1016A0006801092F182F9A818B81BB82AA82A92EEB
:1016B000B82E2501AA81BB814A1A5B0A38016C1831
:1016C0007D0877FE03C0719461947108720157FE22
:1016D00003C0BFEFEB1AFB0AF594E794C016D106DE
:1016E0001CF00FEF1FEF1FC001E010E01CC0D40181
:1016F000ED91FC91B9810484F585E02D9101BB2326
:10170000C1F04A815B81B601C4010995E618F7086A
:10171000F7FE04C0C00ED11EE40CF51CEA81FB816B
:101720003196FB83EA834A815B81A416B506FCF6F9
:1017300004C0A6016A817B81E7CF0F900F900F90C4
:10174000DF91CF911F910F91FF90EF90DF90CF909D
:10175000BF90AF909F908F907F906F905F904F90D1
:101760003F902F900895089580E090E008950E94A2
:10177000720E1F920F920FB60F9211242F933F9368
:101780008F939F93AF93BF93809173039091740352
:10179000A0917503B09176033091720323E0230F7B
:1017A0002D3720F40196A11DB11D05C026E8230F99
:1017B0000296A11DB11D2093720380937303909331
:1017C0007403A0937503B09376038091770390918F
:1017D0007803A0917903B0917A030196A11DB11D00
:1017E0008093770390937803A0937903B0937A035F
:1017F000BF91AF919F918F913F912F910F900FBE0D
:101800000F901F901895CF93DF93CDB7DEB72C972D
:101810000FB6F894DEBF0FBECDBF789484B582605A
:1018200084BD84B5816084BD85B5826085BD85B584
:10183000816085BD80916E00816080936E00109202
:10184000810080918100826080938100809181007D
:10185000816080938100809180008160809380000E
:101860008091B10084608093B1008091B00081606C
:101870008093B00080917A00846080937A00809198
:101880007A00826080937A0080917A0081608093F0
:101890007A0080917A00806880937A001092C1006B
:1018A000809197038F3F29F4909198039F3F09F40B
:1018B00094C161E00E94040561E0809198030E9458
:1018C000040580919803082E000C990BFC01EC553F
:1018D000FA4FE491F0E0EE0FFF1FE656FA4F259124
:1018E000349130939F0320939E03FC01EA57FA4FF3
:1018F000E491E093A10380919703082E000C990BCB
:10190000FC01EC55FA4FE491F0E0EE0FFF1FE656B4
:10191000FA4F2591349130939D0320939C03FC0151
:10192000EA57FA4FE491E093A00361E080919903B4
:101930000E94040580919A0318161CF461E00E942D
:10194000040580919B0318161CF461E00E940405B5
:1019500080919A03181674F460E00E945E0464EFAC
:1019600071E080E090E00E94650561E080919A035B
:101970000E945E0481E20E94AA0484E10E94AA04FB
:1019800088EA0E94AA0480E20E94AA048CE00E94D5
:10199000AA040E94C50481E20E94AA048CEB0E9462
:1019A000AA0480E20E94AA0488EF91E0E0E0F1E05E
:1019B000DF019C011D9221503040E1F710928A0313
:1019C0001092890310928C0310928B03C12CD12C9E
:1019D000B12CE12CF12C00E010E0C80187709927B0
:1019E000892B11F0BB0C0BC0F801A3E0F595E7952E
:1019F000AA95E1F7EC0DFD1DE854FA4FB490B7FE3F
:101A00000AC021E030E0A701B8016E5F7F4F8DE78B
:101A100093E00E94020B0F5F1F4F00351105E9F69E
:101A20003FEFE31AF30A8AE0C80ED11C90E3E916EF
:101A3000F10489F60E94C50461E086E00E94040575
:101A400060E08EE00E94040560E08FE00E940405E3
:101A500060E080E10E94040560E081E10E940405ED
:101A600060E082E10E94040560E083E10E940405D9
:101A700060E087E00E94040560E0A62E61E0B62EDB
:101A800078EF872E99249394EE24E394F12C50E47C
:101A9000352E8CE0E8EFF2E0DE01119601900D9218
:101AA0008A95E1F7D501F4011D923197E9F74424B5
:101AB000439401E010E010928A031092890310927F
:101AC0008C0310928B039E012D5F3F4F69016624AA
:101AD0006394712C6016710649F410928E03109273
:101AE0008D03F0929003E0928F0308C0F0928E0372
:101AF000E0928D031092900310928F03D6016D91A6
:101B00007D916D016115710561F0FB01019000206F
:101B1000E9F73197AF01461B570B8DE793E00E9421
:101B2000330442E050E060E373E08DE793E00E940D
:101B30003304BFEF6B1A7B0AE6E06E16710451F6B0
:101B40000E94C50430927C0080917A00806480936A
:101B50007A0080917A0086FDFCCF809178002091F8
:101B6000790090E0922B883C910594F08C3D910592
:101B70008CF0803F91050CF477C08E30F1E09F0728
:101B80000CF475C08E3F21E092070CF472C065C062
:101B900055245A9468EC70E080E090E00E9465055E
:101BA000050D111D57FC1A950115110531F0063070
:101BB00011052CF005E010E002C001E010E031E07A
:101BC000431279CF015000937C0380E090E0892B91
:101BD00009F45FCF0E9400005ACF1FB7F89480919C
:101BE0007B03811127C0EEEAF5E08491E0E9F5E09E
:101BF0009491E82FF0E0EE0FFF1FE458FA4FA59103
:101C0000B491EC91E92321F461E08AE00E945E0442
:101C100061E08AE00E9404058CB580618CBD8CB5C2
:101C200080648CBD61E08DE00E94040561E08BE082
:101C30000E94040580917B038F5F80937B031FBF0D
:101C40008CB58C7F8CBD8DB58E7F8DBD8CB5837F23
:101C50008CBD8CB58F7D8CBD68CE893E93400CF4D5
:101C600071CF412C512C6ECF5524539402C0442483
:101C70004394893E9340ACF78DCFEDE7F3E01382B8
:101C8000128224E530E03583248380E390E097835B
:101C900086833187208793878287158A15861486E5
:101CA0001786168681E0848B2FEF3FEF338B228BD4
:101CB000318B208B868B178A118E108E88E093E0F3
:101CC000918380838FEF828F838F88E0848F89E078
:101CD000858F8AE0868F0895EE0FFF1F0590F4919F
:101CE000E02D099481E090E0F8940C94770EF8943C
:021CF000FFCF24
:101CF20000000000000000000000000000000000E2
:101D020000000000000000000000000000000000D1
:101D1200000000000000C0E0F0F8FCFCFEFFFCE068
:101D220000000000000000000000000000000000B1
:101D320000000000000000000000000000000000A1
:101D42000000000000000000000000000000000091
:101D52000000000000F8F8F8F8F8F8F8F8F8F8F8D9
:101D6200F8F0F0E0E0C080C0FCFFFFFFFF7F3F7FA4
:101D7200FFFFFFFFFF000000000000000000000066
:101D82000000000000000000000000000000000051
:101D92000000000000000000000000000000000041
:101DA200000000000000000000000F1F3F7FFFFF47
:101DB200FFFFFFFFFFFFE7C7C7878F9F9FFFFFFF61
:101DC200C1C0E0FCFFFFFFFFFFFCFCFCFCFEFEFECF
:101DD200FCFCF8F8F0E0C0C00000000000000000C9
:101DE20000000000000000000000000000000000F1
:101DF20000000000000000000000000000000000E1
:101E02000080C0E0F1FBFFFFFFFFFF7F1F0F0F8786
:101E1200E7FFFFFF1F1F3FF9F8F8F8F8F8F8FDFF9A
:101E2200FFFFFFFFFFFFFFFF7F3F0F0701000000E3
:101E320000000000000000000000000000000000A0
:101E42000000000000000000000000000000000090
:101E5200000000F0FEFFFFFFFFFFFFFFFFFFFFFE9E
:101E62007E3F3F0F1FFFFFFFFCF0E0F1FFFFFFFF90
:101E7200FFFCF0010101010101010100000000006D
:101E82000000000000000000000000000000000050
:101E92000000000000000000000000000000000040
:101EA2000000000000000003030303030303030117
:101EB20001010100000000000000030F1F3F7F7FAF
:101EC200FFFFFFFF7F7F1F030000000000000000F4
:101ED2000000000000000000000000000000000000
:101EE20000000000000000003303380345035103E3
:101EF2005C0367030000000037083304B40BB30B24
:101F02009F053204020BDA0AF60AEA0A090B3104C7
:101F12000C060B06950A510A010AE3096C090D0920
:101F22000D0A004D656E75004F7363696C6F7363C4
:101F32006F70696F0076616C6F72657320416E61BC
:101F4200005465726D6F6D6574726F0053657276C1
:101F52006F20746573740041636572636120646508
:021F620000007D
:00000001FF
